{
  "contractName": "Evaluator",
  "abi": [
    {
      "inputs": [
        {
          "internalType": "contract ERC20TD",
          "name": "_TDERC20",
          "type": "address"
        }
      ],
      "stateMutability": "nonpayable",
      "type": "constructor"
    },
    {
      "anonymous": false,
      "inputs": [
        {
          "indexed": false,
          "internalType": "address",
          "name": "erc20Address",
          "type": "address"
        }
      ],
      "name": "constructedCorrectly",
      "type": "event"
    },
    {
      "anonymous": false,
      "inputs": [
        {
          "indexed": false,
          "internalType": "string",
          "name": "ticker",
          "type": "string"
        },
        {
          "indexed": false,
          "internalType": "uint256",
          "name": "supply",
          "type": "uint256"
        }
      ],
      "name": "newRandomTickerAndSupply",
      "type": "event"
    },
    {
      "stateMutability": "payable",
      "type": "fallback",
      "payable": true
    },
    {
      "inputs": [
        {
          "internalType": "address",
          "name": "",
          "type": "address"
        }
      ],
      "name": "assignedSupply",
      "outputs": [
        {
          "internalType": "uint256",
          "name": "",
          "type": "uint256"
        }
      ],
      "stateMutability": "view",
      "type": "function",
      "constant": true
    },
    {
      "inputs": [
        {
          "internalType": "address",
          "name": "",
          "type": "address"
        }
      ],
      "name": "assignedTicker",
      "outputs": [
        {
          "internalType": "string",
          "name": "",
          "type": "string"
        }
      ],
      "stateMutability": "view",
      "type": "function",
      "constant": true
    },
    {
      "inputs": [
        {
          "internalType": "address",
          "name": "",
          "type": "address"
        }
      ],
      "name": "ex8Tier1AmountBought",
      "outputs": [
        {
          "internalType": "uint256",
          "name": "",
          "type": "uint256"
        }
      ],
      "stateMutability": "view",
      "type": "function",
      "constant": true
    },
    {
      "inputs": [
        {
          "internalType": "address",
          "name": "",
          "type": "address"
        },
        {
          "internalType": "uint256",
          "name": "",
          "type": "uint256"
        }
      ],
      "name": "exerciceProgression",
      "outputs": [
        {
          "internalType": "bool",
          "name": "",
          "type": "bool"
        }
      ],
      "stateMutability": "view",
      "type": "function",
      "constant": true
    },
    {
      "inputs": [
        {
          "internalType": "address",
          "name": "",
          "type": "address"
        }
      ],
      "name": "hasBeenPaired",
      "outputs": [
        {
          "internalType": "bool",
          "name": "",
          "type": "bool"
        }
      ],
      "stateMutability": "view",
      "type": "function",
      "constant": true
    },
    {
      "inputs": [],
      "name": "nextValueStoreRank",
      "outputs": [
        {
          "internalType": "uint256",
          "name": "",
          "type": "uint256"
        }
      ],
      "stateMutability": "view",
      "type": "function",
      "constant": true
    },
    {
      "inputs": [
        {
          "internalType": "address",
          "name": "",
          "type": "address"
        }
      ],
      "name": "studentErc20",
      "outputs": [
        {
          "internalType": "contract IExerciceSolution",
          "name": "",
          "type": "address"
        }
      ],
      "stateMutability": "view",
      "type": "function",
      "constant": true
    },
    {
      "inputs": [
        {
          "internalType": "address",
          "name": "",
          "type": "address"
        }
      ],
      "name": "teachers",
      "outputs": [
        {
          "internalType": "bool",
          "name": "",
          "type": "bool"
        }
      ],
      "stateMutability": "view",
      "type": "function",
      "constant": true
    },
    {
      "stateMutability": "payable",
      "type": "receive",
      "payable": true
    },
    {
      "inputs": [],
      "name": "ex1_getTickerAndSupply",
      "outputs": [],
      "stateMutability": "nonpayable",
      "type": "function"
    },
    {
      "inputs": [],
      "name": "ex2_testErc20TickerAndSupply",
      "outputs": [],
      "stateMutability": "nonpayable",
      "type": "function"
    },
    {
      "inputs": [],
      "name": "ex3_testGetToken",
      "outputs": [],
      "stateMutability": "nonpayable",
      "type": "function"
    },
    {
      "inputs": [],
      "name": "ex4_testBuyToken",
      "outputs": [],
      "stateMutability": "nonpayable",
      "type": "function"
    },
    {
      "inputs": [],
      "name": "ex5_testDenyListing",
      "outputs": [],
      "stateMutability": "nonpayable",
      "type": "function"
    },
    {
      "inputs": [],
      "name": "ex6_testAllowListing",
      "outputs": [],
      "stateMutability": "nonpayable",
      "type": "function"
    },
    {
      "inputs": [],
      "name": "ex7_testDenyListing",
      "outputs": [],
      "stateMutability": "nonpayable",
      "type": "function"
    },
    {
      "inputs": [],
      "name": "ex8_testTier1Listing",
      "outputs": [],
      "stateMutability": "nonpayable",
      "type": "function"
    },
    {
      "inputs": [],
      "name": "ex9_testTier2Listing",
      "outputs": [],
      "stateMutability": "nonpayable",
      "type": "function"
    },
    {
      "inputs": [],
      "name": "ex10_allInOne",
      "outputs": [],
      "stateMutability": "nonpayable",
      "type": "function"
    },
    {
      "inputs": [
        {
          "internalType": "contract IExerciceSolution",
          "name": "studentExercice",
          "type": "address"
        }
      ],
      "name": "submitExercice",
      "outputs": [],
      "stateMutability": "nonpayable",
      "type": "function"
    },
    {
      "inputs": [
        {
          "internalType": "bytes32",
          "name": "_bytes32",
          "type": "bytes32"
        }
      ],
      "name": "bytes32ToString",
      "outputs": [
        {
          "internalType": "string",
          "name": "",
          "type": "string"
        }
      ],
      "stateMutability": "pure",
      "type": "function",
      "constant": true
    },
    {
      "inputs": [
        {
          "internalType": "address",
          "name": "studentAddres",
          "type": "address"
        }
      ],
      "name": "readTicker",
      "outputs": [
        {
          "internalType": "string",
          "name": "",
          "type": "string"
        }
      ],
      "stateMutability": "view",
      "type": "function",
      "constant": true
    },
    {
      "inputs": [
        {
          "internalType": "address",
          "name": "studentAddres",
          "type": "address"
        }
      ],
      "name": "readSupply",
      "outputs": [
        {
          "internalType": "uint256",
          "name": "",
          "type": "uint256"
        }
      ],
      "stateMutability": "view",
      "type": "function",
      "constant": true
    },
    {
      "inputs": [
        {
          "internalType": "uint256[20]",
          "name": "_randomSupplies",
          "type": "uint256[20]"
        },
        {
          "internalType": "string[20]",
          "name": "_randomTickers",
          "type": "string[20]"
        }
      ],
      "name": "setRandomTickersAndSupply",
      "outputs": [],
      "stateMutability": "nonpayable",
      "type": "function"
    }
  ],
  "bytecode": "0x60806040523480156200001157600080fd5b506040516200541c3803806200541c8339818101604052620000379190810190620000f1565b80600160006101000a81548173ffffffffffffffffffffffffffffffffffffffff021916908373ffffffffffffffffffffffffffffffffffffffff1602179055507f2915b3b4e0613c6b63dca39a375dd8c9f1de68d9e208a0713b7624260e2d0812600160009054906101000a900473ffffffffffffffffffffffffffffffffffffffff16604051620000cb91906200012e565b60405180910390a150620001ad565b600081519050620000eb8162000193565b92915050565b6000602082840312156200010457600080fd5b60006200011484828501620000da565b91505092915050565b62000128816200014b565b82525050565b60006020820190506200014560008301846200011d565b92915050565b6000620001588262000173565b9050919050565b60006200016c826200014b565b9050919050565b600073ffffffffffffffffffffffffffffffffffffffff82169050919050565b6200019e816200015f565b8114620001aa57600080fd5b50565b61525f80620001bd6000396000f3fe6080604052600436106101435760003560e01c8063a6c611d9116100b6578063e22b5dcf1161006f578063e22b5dcf146103ef578063e22ebfd61461042c578063e8b4cb5614610469578063ec65b16e14610480578063f0a47f7814610497578063f4fdbb88146104d45761014a565b8063a6c611d91461032d578063afda5dc514610344578063b32b559f14610381578063ccd64d7d14610398578063d1a2e76e146103af578063df70111f146103d85761014a565b806339119dce1161010857806339119dce1461021d5780633bc40956146102485780637db60caf1461025f5780639201de551461029c57806398f02097146102d95780639f91f516146102f05761014a565b8062a3491a1461014c5780630af78edc1461018957806316f4b99f146101a05780632236d353146101b75780632e64c500146101e05761014a565b3661014a57005b005b34801561015857600080fd5b50610173600480360361016e91908101906145be565b610511565b6040516101809190614d6c565b60405180910390f35b34801561019557600080fd5b5061019e6105c1565b005b3480156101ac57600080fd5b506101b5610953565b005b3480156101c357600080fd5b506101de60048036036101d991908101906146cb565b610e1e565b005b3480156101ec57600080fd5b50610207600480360361020291908101906145e7565b6111ca565b6040516102149190614d36565b60405180910390f35b34801561022957600080fd5b506102326111f9565b60405161023f9190614f20565b60405180910390f35b34801561025457600080fd5b5061025d6111ff565b005b34801561026b57600080fd5b50610286600480360361028191908101906145be565b61172a565b6040516102939190614f20565b60405180910390f35b3480156102a857600080fd5b506102c360048036036102be91908101906146a2565b611742565b6040516102d09190614d8e565b60405180910390f35b3480156102e557600080fd5b506102ee61189f565b005b3480156102fc57600080fd5b50610317600480360361031291908101906145be565b611af0565b6040516103249190614f20565b60405180910390f35b34801561033957600080fd5b50610342611b39565b005b34801561035057600080fd5b5061036b600480360361036691908101906145be565b612055565b6040516103789190614f20565b60405180910390f35b34801561038d57600080fd5b5061039661206d565b005b3480156103a457600080fd5b506103ad6121d6565b005b3480156103bb57600080fd5b506103d660048036036103d19190810190614623565b6126b1565b005b3480156103e457600080fd5b506103ed612806565b005b3480156103fb57600080fd5b50610416600480360361041191908101906145be565b612c60565b6040516104239190614d8e565b60405180910390f35b34801561043857600080fd5b50610453600480360361044e91908101906145be565b612d41565b6040516104609190614d51565b60405180910390f35b34801561047557600080fd5b5061047e612d74565b005b34801561048c57600080fd5b50610495613683565b005b3480156104a357600080fd5b506104be60048036036104b991908101906145be565b613aa2565b6040516104cb9190614d36565b60405180910390f35b3480156104e057600080fd5b506104fb60048036036104f691908101906145be565b613ac2565b6040516105089190614d36565b60405180910390f35b602b6020528060005260406000206000915090508054600181600116156101000203166002900480601f0160208091040260200160405190810160405280929190818152602001828054600181600116156101000203166002900480156105b95780601f1061058e576101008083540402835291602001916105b9565b820191906000526020600020905b81548152906001019060200180831161059c57829003601f168201915b505050505081565b600073ffffffffffffffffffffffffffffffffffffffff16602e60003373ffffffffffffffffffffffffffffffffffffffff1673ffffffffffffffffffffffffffffffffffffffff16815260200190815260200160002060009054906101000a900473ffffffffffffffffffffffffffffffffffffffff1673ffffffffffffffffffffffffffffffffffffffff161415610690576040517f08c379a000000000000000000000000000000000000000000000000000000000815260040161068790614ec0565b60405180910390fd5b602d60003373ffffffffffffffffffffffffffffffffffffffff1673ffffffffffffffffffffffffffffffffffffffff16815260200190815260200160002060006005815260200190815260200160002060009054906101000a900460ff166106f857600080fd5b602e60003373ffffffffffffffffffffffffffffffffffffffff1673ffffffffffffffffffffffffffffffffffffffff16815260200190815260200160002060009054906101000a900473ffffffffffffffffffffffffffffffffffffffff1673ffffffffffffffffffffffffffffffffffffffff1663d48a87f1306040518263ffffffff1660e01b81526004016107909190614c77565b602060405180830381600087803b1580156107aa57600080fd5b505af11580156107be573d6000803e3d6000fd5b505050506040513d601f19601f820116820180604052506107e29190810190614679565b6107eb57600080fd5b6107f36111ff565b602d60003373ffffffffffffffffffffffffffffffffffffffff1673ffffffffffffffffffffffffffffffffffffffff16815260200190815260200160002060006006815260200190815260200160002060009054906101000a900460ff16610951576001602d60003373ffffffffffffffffffffffffffffffffffffffff1673ffffffffffffffffffffffffffffffffffffffff16815260200190815260200160002060006006815260200190815260200160002060006101000a81548160ff021916908315150217905550600160009054906101000a900473ffffffffffffffffffffffffffffffffffffffff1673ffffffffffffffffffffffffffffffffffffffff1663158a49883360026040518363ffffffff1660e01b815260040161091e929190614d0d565b600060405180830381600087803b15801561093857600080fd5b505af115801561094c573d6000803e3d6000fd5b505050505b565b600073ffffffffffffffffffffffffffffffffffffffff16602e60003373ffffffffffffffffffffffffffffffffffffffff1673ffffffffffffffffffffffffffffffffffffffff16815260200190815260200160002060009054906101000a900473ffffffffffffffffffffffffffffffffffffffff1673ffffffffffffffffffffffffffffffffffffffff161415610a22576040517f08c379a0000000000000000000000000000000000000000000000000000000008152600401610a1990614ec0565b60405180910390fd5b602d60003373ffffffffffffffffffffffffffffffffffffffff1673ffffffffffffffffffffffffffffffffffffffff16815260200190815260200160002060006007815260200190815260200160002060009054906101000a900460ff16610a8a57600080fd5b602e60003373ffffffffffffffffffffffffffffffffffffffff1673ffffffffffffffffffffffffffffffffffffffff16815260200190815260200160002060009054906101000a900473ffffffffffffffffffffffffffffffffffffffff1673ffffffffffffffffffffffffffffffffffffffff1663d48a87f1306040518263ffffffff1660e01b8152600401610b229190614c77565b602060405180830381600087803b158015610b3c57600080fd5b505af1158015610b50573d6000803e3d6000fd5b505050506040513d601f19601f82011682018060405250610b749190810190614679565b610b7d57600080fd5b6001602e60003373ffffffffffffffffffffffffffffffffffffffff1673ffffffffffffffffffffffffffffffffffffffff16815260200190815260200160002060009054906101000a900473ffffffffffffffffffffffffffffffffffffffff1673ffffffffffffffffffffffffffffffffffffffff16638dd3fda9306040518263ffffffff1660e01b8152600401610c179190614c77565b602060405180830381600087803b158015610c3157600080fd5b505af1158015610c45573d6000803e3d6000fd5b505050506040513d601f19601f82011682018060405250610c699190810190614735565b14610c7357600080fd5b610c7b613ae2565b602f60003373ffffffffffffffffffffffffffffffffffffffff1673ffffffffffffffffffffffffffffffffffffffff16815260200190815260200160002081905550602d60003373ffffffffffffffffffffffffffffffffffffffff1673ffffffffffffffffffffffffffffffffffffffff16815260200190815260200160002060006008815260200190815260200160002060009054906101000a900460ff16610e1c576001602d60003373ffffffffffffffffffffffffffffffffffffffff1673ffffffffffffffffffffffffffffffffffffffff16815260200190815260200160002060006008815260200190815260200160002060006101000a81548160ff021916908315150217905550600160009054906101000a900473ffffffffffffffffffffffffffffffffffffffff1673ffffffffffffffffffffffffffffffffffffffff1663158a49883360026040518363ffffffff1660e01b8152600401610de9929190614d0d565b600060405180830381600087803b158015610e0357600080fd5b505af1158015610e17573d6000803e3d6000fd5b505050505b565b603060008273ffffffffffffffffffffffffffffffffffffffff1673ffffffffffffffffffffffffffffffffffffffff16815260200190815260200160002060009054906101000a900460ff1615610e7557600080fd5b80602e60003373ffffffffffffffffffffffffffffffffffffffff1673ffffffffffffffffffffffffffffffffffffffff16815260200190815260200160002060006101000a81548173ffffffffffffffffffffffffffffffffffffffff021916908373ffffffffffffffffffffffffffffffffffffffff1602179055506001603060008373ffffffffffffffffffffffffffffffffffffffff1673ffffffffffffffffffffffffffffffffffffffff16815260200190815260200160002060006101000a81548160ff021916908315150217905550602d60003373ffffffffffffffffffffffffffffffffffffffff1673ffffffffffffffffffffffffffffffffffffffff168152602001908152602001600020600080815260200190815260200160002060009054906101000a900460ff166111c7576001602d60003373ffffffffffffffffffffffffffffffffffffffff1673ffffffffffffffffffffffffffffffffffffffff168152602001908152602001600020600080815260200190815260200160002060006101000a81548160ff021916908315150217905550600160009054906101000a900473ffffffffffffffffffffffffffffffffffffffff1673ffffffffffffffffffffffffffffffffffffffff1663158a49883360026040518363ffffffff1660e01b8152600401611074929190614d0d565b600060405180830381600087803b15801561108e57600080fd5b505af11580156110a2573d6000803e3d6000fd5b50505050600160009054906101000a900473ffffffffffffffffffffffffffffffffffffffff1673ffffffffffffffffffffffffffffffffffffffff1663158a49883360026040518363ffffffff1660e01b8152600401611104929190614d0d565b600060405180830381600087803b15801561111e57600080fd5b505af1158015611132573d6000803e3d6000fd5b50505050600160009054906101000a900473ffffffffffffffffffffffffffffffffffffffff1673ffffffffffffffffffffffffffffffffffffffff1663158a49883360016040518363ffffffff1660e01b8152600401611194929190614ce4565b600060405180830381600087803b1580156111ae57600080fd5b505af11580156111c2573d6000803e3d6000fd5b505050505b50565b602d6020528160005260406000206020528060005260406000206000915091509054906101000a900460ff1681565b602a5481565b600073ffffffffffffffffffffffffffffffffffffffff16602e60003373ffffffffffffffffffffffffffffffffffffffff1673ffffffffffffffffffffffffffffffffffffffff16815260200190815260200160002060009054906101000a900473ffffffffffffffffffffffffffffffffffffffff1673ffffffffffffffffffffffffffffffffffffffff1614156112ce576040517f08c379a00000000000000000000000000000000000000000000000000000000081526004016112c590614ec0565b60405180910390fd5b6000602e60003373ffffffffffffffffffffffffffffffffffffffff1673ffffffffffffffffffffffffffffffffffffffff16815260200190815260200160002060009054906101000a900473ffffffffffffffffffffffffffffffffffffffff1673ffffffffffffffffffffffffffffffffffffffff166370a08231306040518263ffffffff1660e01b81526004016113689190614c77565b60206040518083038186803b15801561138057600080fd5b505afa158015611394573d6000803e3d6000fd5b505050506040513d601f19601f820116820180604052506113b89190810190614735565b9050602e60003373ffffffffffffffffffffffffffffffffffffffff1673ffffffffffffffffffffffffffffffffffffffff16815260200190815260200160002060009054906101000a900473ffffffffffffffffffffffffffffffffffffffff1673ffffffffffffffffffffffffffffffffffffffff166321df0da76040518163ffffffff1660e01b8152600401602060405180830381600087803b15801561146157600080fd5b505af1158015611475573d6000803e3d6000fd5b505050506040513d601f19601f820116820180604052506114999190810190614679565b506000602e60003373ffffffffffffffffffffffffffffffffffffffff1673ffffffffffffffffffffffffffffffffffffffff16815260200190815260200160002060009054906101000a900473ffffffffffffffffffffffffffffffffffffffff1673ffffffffffffffffffffffffffffffffffffffff166370a08231306040518263ffffffff1660e01b81526004016115349190614c77565b60206040518083038186803b15801561154c57600080fd5b505afa158015611560573d6000803e3d6000fd5b505050506040513d601f19601f820116820180604052506115849190810190614735565b90508082106115c8576040517f08c379a00000000000000000000000000000000000000000000000000000000081526004016115bf90614e40565b60405180910390fd5b602d60003373ffffffffffffffffffffffffffffffffffffffff1673ffffffffffffffffffffffffffffffffffffffff16815260200190815260200160002060006003815260200190815260200160002060009054906101000a900460ff16611726576001602d60003373ffffffffffffffffffffffffffffffffffffffff1673ffffffffffffffffffffffffffffffffffffffff16815260200190815260200160002060006003815260200190815260200160002060006101000a81548160ff021916908315150217905550600160009054906101000a900473ffffffffffffffffffffffffffffffffffffffff1673ffffffffffffffffffffffffffffffffffffffff1663158a49883360026040518363ffffffff1660e01b81526004016116f3929190614d0d565b600060405180830381600087803b15801561170d57600080fd5b505af1158015611721573d6000803e3d6000fd5b505050505b5050565b602c6020528060005260406000206000915090505481565b606060008090505b60208160ff161080156117955750600060f81b838260ff166020811061176c57fe5b1a60f81b7effffffffffffffffffffffffffffffffffffffffffffffffffffffffffffff191614155b156117a757808060010191505061174a565b60608160ff166040519080825280601f01601f1916602001820160405280156117df5781602001600182028038833980820191505090505b509050600091505b60208260ff161080156118325750600060f81b848360ff166020811061180957fe5b1a60f81b7effffffffffffffffffffffffffffffffffffffffffffffffffffffffffffff191614155b1561189557838260ff166020811061184657fe5b1a60f81b818360ff168151811061185957fe5b60200101907effffffffffffffffffffffffffffffffffffffffffffffffffffffffffffff1916908160001a90535081806001019250506117e7565b8092505050919050565b670de0b6b3a76400006002602a54601481106118b757fe5b015402602c60003373ffffffffffffffffffffffffffffffffffffffff1673ffffffffffffffffffffffffffffffffffffffff168152602001908152602001600020819055506016602a546014811061190c57fe5b01602b60003373ffffffffffffffffffffffffffffffffffffffff1673ffffffffffffffffffffffffffffffffffffffff168152602001908152602001600020908054600181600116156101000203166002900461196b929190614177565b506001602a600082825401925050819055506014602a5410611990576000602a819055505b602d60003373ffffffffffffffffffffffffffffffffffffffff1673ffffffffffffffffffffffffffffffffffffffff16815260200190815260200160002060006001815260200190815260200160002060009054906101000a900460ff16611aee576001602d60003373ffffffffffffffffffffffffffffffffffffffff1673ffffffffffffffffffffffffffffffffffffffff16815260200190815260200160002060006001815260200190815260200160002060006101000a81548160ff021916908315150217905550600160009054906101000a900473ffffffffffffffffffffffffffffffffffffffff1673ffffffffffffffffffffffffffffffffffffffff1663158a49883360016040518363ffffffff1660e01b8152600401611abb929190614ce4565b600060405180830381600087803b158015611ad557600080fd5b505af1158015611ae9573d6000803e3d6000fd5b505050505b565b6000602c60008373ffffffffffffffffffffffffffffffffffffffff1673ffffffffffffffffffffffffffffffffffffffff168152602001908152602001600020549050919050565b600073ffffffffffffffffffffffffffffffffffffffff16602e60003373ffffffffffffffffffffffffffffffffffffffff1673ffffffffffffffffffffffffffffffffffffffff16815260200190815260200160002060009054906101000a900473ffffffffffffffffffffffffffffffffffffffff1673ffffffffffffffffffffffffffffffffffffffff161415611c08576040517f08c379a0000000000000000000000000000000000000000000000000000000008152600401611bff90614ec0565b60405180910390fd5b602e60003373ffffffffffffffffffffffffffffffffffffffff1673ffffffffffffffffffffffffffffffffffffffff16815260200190815260200160002060009054906101000a900473ffffffffffffffffffffffffffffffffffffffff1673ffffffffffffffffffffffffffffffffffffffff1663d48a87f1306040518263ffffffff1660e01b8152600401611ca09190614c77565b602060405180830381600087803b158015611cba57600080fd5b505af1158015611cce573d6000803e3d6000fd5b505050506040513d601f19601f82011682018060405250611cf29190810190614679565b15611cfc57600080fd5b6000602e60003373ffffffffffffffffffffffffffffffffffffffff1673ffffffffffffffffffffffffffffffffffffffff16815260200190815260200160002060009054906101000a900473ffffffffffffffffffffffffffffffffffffffff1673ffffffffffffffffffffffffffffffffffffffff16638dd3fda9306040518263ffffffff1660e01b8152600401611d969190614c77565b602060405180830381600087803b158015611db057600080fd5b505af1158015611dc4573d6000803e3d6000fd5b505050506040513d601f19601f82011682018060405250611de89190810190614735565b14611df257600080fd5b600060019050602e60003373ffffffffffffffffffffffffffffffffffffffff1673ffffffffffffffffffffffffffffffffffffffff16815260200190815260200160002060009054906101000a900473ffffffffffffffffffffffffffffffffffffffff1673ffffffffffffffffffffffffffffffffffffffff1663a4821719655af3107a40006040518263ffffffff1660e01b81526004016020604051808303818588803b158015611ea557600080fd5b505af193505050508015611ed757506040513d601f19601f82011682018060405250611ed49190810190614679565b60015b611ee45760009050611ee9565b809150505b8015611ef457600080fd5b602d60003373ffffffffffffffffffffffffffffffffffffffff1673ffffffffffffffffffffffffffffffffffffffff16815260200190815260200160002060006007815260200190815260200160002060009054906101000a900460ff16612052576001602d60003373ffffffffffffffffffffffffffffffffffffffff1673ffffffffffffffffffffffffffffffffffffffff16815260200190815260200160002060006007815260200190815260200160002060006101000a81548160ff021916908315150217905550600160009054906101000a900473ffffffffffffffffffffffffffffffffffffffff1673ffffffffffffffffffffffffffffffffffffffff1663158a49883360016040518363ffffffff1660e01b815260040161201f929190614ce4565b600060405180830381600087803b15801561203957600080fd5b505af115801561204d573d6000803e3d6000fd5b505050505b50565b602f6020528060005260406000206000915090505481565b612075613ae2565b50602d60003373ffffffffffffffffffffffffffffffffffffffff1673ffffffffffffffffffffffffffffffffffffffff16815260200190815260200160002060006004815260200190815260200160002060009054906101000a900460ff166121d4576001602d60003373ffffffffffffffffffffffffffffffffffffffff1673ffffffffffffffffffffffffffffffffffffffff16815260200190815260200160002060006004815260200190815260200160002060006101000a81548160ff021916908315150217905550600160009054906101000a900473ffffffffffffffffffffffffffffffffffffffff1673ffffffffffffffffffffffffffffffffffffffff1663158a49883360026040518363ffffffff1660e01b81526004016121a1929190614d0d565b600060405180830381600087803b1580156121bb57600080fd5b505af11580156121cf573d6000803e3d6000fd5b505050505b565b600073ffffffffffffffffffffffffffffffffffffffff16602e60003373ffffffffffffffffffffffffffffffffffffffff1673ffffffffffffffffffffffffffffffffffffffff16815260200190815260200160002060009054906101000a900473ffffffffffffffffffffffffffffffffffffffff1673ffffffffffffffffffffffffffffffffffffffff1614156122a5576040517f08c379a000000000000000000000000000000000000000000000000000000000815260040161229c90614ec0565b60405180910390fd5b602d60003373ffffffffffffffffffffffffffffffffffffffff1673ffffffffffffffffffffffffffffffffffffffff16815260200190815260200160002060006007815260200190815260200160002060009054906101000a900460ff1661230d57600080fd5b602e60003373ffffffffffffffffffffffffffffffffffffffff1673ffffffffffffffffffffffffffffffffffffffff16815260200190815260200160002060009054906101000a900473ffffffffffffffffffffffffffffffffffffffff1673ffffffffffffffffffffffffffffffffffffffff1663d48a87f1306040518263ffffffff1660e01b81526004016123a59190614c77565b602060405180830381600087803b1580156123bf57600080fd5b505af11580156123d3573d6000803e3d6000fd5b505050506040513d601f19601f820116820180604052506123f79190810190614679565b61240057600080fd5b6002602e60003373ffffffffffffffffffffffffffffffffffffffff1673ffffffffffffffffffffffffffffffffffffffff16815260200190815260200160002060009054906101000a900473ffffffffffffffffffffffffffffffffffffffff1673ffffffffffffffffffffffffffffffffffffffff16638dd3fda9306040518263ffffffff1660e01b815260040161249a9190614c77565b602060405180830381600087803b1580156124b457600080fd5b505af11580156124c8573d6000803e3d6000fd5b505050506040513d601f19601f820116820180604052506124ec9190810190614735565b146124f657600080fd5b6000612500613ae2565b9050602f60003373ffffffffffffffffffffffffffffffffffffffff1673ffffffffffffffffffffffffffffffffffffffff16815260200190815260200160002054600202811461255057600080fd5b602d60003373ffffffffffffffffffffffffffffffffffffffff1673ffffffffffffffffffffffffffffffffffffffff16815260200190815260200160002060006009815260200190815260200160002060009054906101000a900460ff166126ae576001602d60003373ffffffffffffffffffffffffffffffffffffffff1673ffffffffffffffffffffffffffffffffffffffff16815260200190815260200160002060006009815260200190815260200160002060006101000a81548160ff021916908315150217905550600160009054906101000a900473ffffffffffffffffffffffffffffffffffffffff1673ffffffffffffffffffffffffffffffffffffffff1663158a49883360026040518363ffffffff1660e01b815260040161267b929190614d0d565b600060405180830381600087803b15801561269557600080fd5b505af11580156126a9573d6000803e3d6000fd5b505050505b50565b600160009054906101000a900473ffffffffffffffffffffffffffffffffffffffff1673ffffffffffffffffffffffffffffffffffffffff1663f0a47f78336040518263ffffffff1660e01b815260040161270c9190614c77565b60206040518083038186803b15801561272457600080fd5b505afa158015612738573d6000803e3d6000fd5b505050506040513d601f19601f8201168201806040525061275c9190810190614679565b61276557600080fd5b8160029060146127769291906141fe565b5080601690601461278892919061423e565b506000602a8190555060008090505b6014811015612801577fcc783cf5d663570e7c7576cec91f24975b35b957c8dd67766710be25c48cf602601682601481106127ce57fe5b01600283601481106127dc57fe5b01546040516127ec929190614db0565b60405180910390a18080600101915050612797565b505050565b6000600160009054906101000a900473ffffffffffffffffffffffffffffffffffffffff1673ffffffffffffffffffffffffffffffffffffffff166370a08231336040518263ffffffff1660e01b81526004016128639190614c77565b60206040518083038186803b15801561287b57600080fd5b505afa15801561288f573d6000803e3d6000fd5b505050506040513d601f19601f820116820180604052506128b39190810190614735565b9050600081146128f8576040517f08c379a00000000000000000000000000000000000000000000000000000000081526004016128ef90614e20565b60405180910390fd5b60003390508073ffffffffffffffffffffffffffffffffffffffff166359b4726c6040518163ffffffff1660e01b8152600401600060405180830381600087803b15801561294557600080fd5b505af1158015612959573d6000803e3d6000fd5b505050506000600160009054906101000a900473ffffffffffffffffffffffffffffffffffffffff1673ffffffffffffffffffffffffffffffffffffffff166370a08231336040518263ffffffff1660e01b81526004016129ba9190614c77565b60206040518083038186803b1580156129d257600080fd5b505afa1580156129e6573d6000803e3d6000fd5b505050506040513d601f19601f82011682018060405250612a0a9190810190614735565b90506000600160009054906101000a900473ffffffffffffffffffffffffffffffffffffffff1673ffffffffffffffffffffffffffffffffffffffff1663313ce5676040518163ffffffff1660e01b815260040160206040518083038186803b158015612a7657600080fd5b505afa158015612a8a573d6000803e3d6000fd5b505050506040513d601f19601f82011682018060405250612aae919081019061475e565b60ff169050601281600a0a02821015612afc576040517f08c379a0000000000000000000000000000000000000000000000000000000008152600401612af390614e80565b60405180910390fd5b602d60003373ffffffffffffffffffffffffffffffffffffffff1673ffffffffffffffffffffffffffffffffffffffff1681526020019081526020016000206000600a815260200190815260200160002060009054906101000a900460ff16612c5a576001602d60003373ffffffffffffffffffffffffffffffffffffffff1673ffffffffffffffffffffffffffffffffffffffff1681526020019081526020016000206000600a815260200190815260200160002060006101000a81548160ff021916908315150217905550600160009054906101000a900473ffffffffffffffffffffffffffffffffffffffff1673ffffffffffffffffffffffffffffffffffffffff1663158a49883360026040518363ffffffff1660e01b8152600401612c27929190614d0d565b600060405180830381600087803b158015612c4157600080fd5b505af1158015612c55573d6000803e3d6000fd5b505050505b50505050565b6060602b60008373ffffffffffffffffffffffffffffffffffffffff1673ffffffffffffffffffffffffffffffffffffffff1681526020019081526020016000208054600181600116156101000203166002900480601f016020809104026020016040519081016040528092919081815260200182805460018160011615610100020316600290048015612d355780601f10612d0a57610100808354040283529160200191612d35565b820191906000526020600020905b815481529060010190602001808311612d1857829003601f168201915b50505050509050919050565b602e6020528060005260406000206000915054906101000a900473ffffffffffffffffffffffffffffffffffffffff1681565b602d60003373ffffffffffffffffffffffffffffffffffffffff1673ffffffffffffffffffffffffffffffffffffffff16815260200190815260200160002060006001815260200190815260200160002060009054906101000a900460ff16612ddc57600080fd5b602d60003373ffffffffffffffffffffffffffffffffffffffff1673ffffffffffffffffffffffffffffffffffffffff168152602001908152602001600020600080815260200190815260200160002060009054906101000a900460ff16612e4357600080fd5b613005602b60003373ffffffffffffffffffffffffffffffffffffffff1673ffffffffffffffffffffffffffffffffffffffff1681526020019081526020016000208054600181600116156101000203166002900480601f016020809104026020016040519081016040528092919081815260200182805460018160011615610100020316600290048015612f195780601f10612eee57610100808354040283529160200191612f19565b820191906000526020600020905b815481529060010190602001808311612efc57829003601f168201915b5050505050602e60003373ffffffffffffffffffffffffffffffffffffffff1673ffffffffffffffffffffffffffffffffffffffff16815260200190815260200160002060009054906101000a900473ffffffffffffffffffffffffffffffffffffffff1673ffffffffffffffffffffffffffffffffffffffff166395d89b416040518163ffffffff1660e01b815260040160006040518083038186803b158015612fc357600080fd5b505afa158015612fd7573d6000803e3d6000fd5b505050506040513d6000823e3d601f19601f8201168201806040525061300091908101906146f4565b61411e565b613044576040517f08c379a000000000000000000000000000000000000000000000000000000000815260040161303b90614e00565b60405180910390fd5b602e60003373ffffffffffffffffffffffffffffffffffffffff1673ffffffffffffffffffffffffffffffffffffffff16815260200190815260200160002060009054906101000a900473ffffffffffffffffffffffffffffffffffffffff1673ffffffffffffffffffffffffffffffffffffffff166318160ddd6040518163ffffffff1660e01b815260040160206040518083038186803b1580156130e957600080fd5b505afa1580156130fd573d6000803e3d6000fd5b505050506040513d601f19601f820116820180604052506131219190810190614735565b602c60003373ffffffffffffffffffffffffffffffffffffffff1673ffffffffffffffffffffffffffffffffffffffff16815260200190815260200160002054146131a1576040517f08c379a000000000000000000000000000000000000000000000000000000000815260040161319890614ee0565b60405180910390fd5b6000602e60003373ffffffffffffffffffffffffffffffffffffffff1673ffffffffffffffffffffffffffffffffffffffff16815260200190815260200160002060009054906101000a900473ffffffffffffffffffffffffffffffffffffffff1673ffffffffffffffffffffffffffffffffffffffff1663dd62ed3e30336040518363ffffffff1660e01b815260040161323d929190614c92565b60206040518083038186803b15801561325557600080fd5b505afa158015613269573d6000803e3d6000fd5b505050506040513d601f19601f8201168201806040525061328d9190810190614735565b146132cd576040517f08c379a00000000000000000000000000000000000000000000000000000000081526004016132c490614f00565b60405180910390fd5b6000602e60003373ffffffffffffffffffffffffffffffffffffffff1673ffffffffffffffffffffffffffffffffffffffff16815260200190815260200160002060009054906101000a900473ffffffffffffffffffffffffffffffffffffffff1673ffffffffffffffffffffffffffffffffffffffff166370a08231306040518263ffffffff1660e01b81526004016133679190614c77565b60206040518083038186803b15801561337f57600080fd5b505afa158015613393573d6000803e3d6000fd5b505050506040513d601f19601f820116820180604052506133b79190810190614735565b146133f7576040517f08c379a00000000000000000000000000000000000000000000000000000000081526004016133ee90614e60565b60405180910390fd5b602e60003373ffffffffffffffffffffffffffffffffffffffff1673ffffffffffffffffffffffffffffffffffffffff16815260200190815260200160002060009054906101000a900473ffffffffffffffffffffffffffffffffffffffff1673ffffffffffffffffffffffffffffffffffffffff1663095ea7b333600a6040518363ffffffff1660e01b8152600401613492929190614cbb565b602060405180830381600087803b1580156134ac57600080fd5b505af11580156134c0573d6000803e3d6000fd5b505050506040513d601f19601f820116820180604052506134e49190810190614679565b613523576040517f08c379a000000000000000000000000000000000000000000000000000000000815260040161351a90614de0565b60405180910390fd5b602d60003373ffffffffffffffffffffffffffffffffffffffff1673ffffffffffffffffffffffffffffffffffffffff16815260200190815260200160002060006002815260200190815260200160002060009054906101000a900460ff16613681576001602d60003373ffffffffffffffffffffffffffffffffffffffff1673ffffffffffffffffffffffffffffffffffffffff16815260200190815260200160002060006002815260200190815260200160002060006101000a81548160ff021916908315150217905550600160009054906101000a900473ffffffffffffffffffffffffffffffffffffffff1673ffffffffffffffffffffffffffffffffffffffff1663158a49883360026040518363ffffffff1660e01b815260040161364e929190614d0d565b600060405180830381600087803b15801561366857600080fd5b505af115801561367c573d6000803e3d6000fd5b505050505b565b600073ffffffffffffffffffffffffffffffffffffffff16602e60003373ffffffffffffffffffffffffffffffffffffffff1673ffffffffffffffffffffffffffffffffffffffff16815260200190815260200160002060009054906101000a900473ffffffffffffffffffffffffffffffffffffffff1673ffffffffffffffffffffffffffffffffffffffff161415613752576040517f08c379a000000000000000000000000000000000000000000000000000000000815260040161374990614ec0565b60405180910390fd5b602e60003373ffffffffffffffffffffffffffffffffffffffff1673ffffffffffffffffffffffffffffffffffffffff16815260200190815260200160002060009054906101000a900473ffffffffffffffffffffffffffffffffffffffff1673ffffffffffffffffffffffffffffffffffffffff1663d48a87f1306040518263ffffffff1660e01b81526004016137ea9190614c77565b602060405180830381600087803b15801561380457600080fd5b505af1158015613818573d6000803e3d6000fd5b505050506040513d601f19601f8201168201806040525061383c9190810190614679565b1561384657600080fd5b600060019050602e60003373ffffffffffffffffffffffffffffffffffffffff1673ffffffffffffffffffffffffffffffffffffffff16815260200190815260200160002060009054906101000a900473ffffffffffffffffffffffffffffffffffffffff1673ffffffffffffffffffffffffffffffffffffffff166321df0da76040518163ffffffff1660e01b8152600401602060405180830381600087803b1580156138f357600080fd5b505af192505050801561392457506040513d601f19601f820116820180604052506139219190810190614679565b60015b6139315760009050613936565b809150505b801561394157600080fd5b602d60003373ffffffffffffffffffffffffffffffffffffffff1673ffffffffffffffffffffffffffffffffffffffff16815260200190815260200160002060006005815260200190815260200160002060009054906101000a900460ff16613a9f576001602d60003373ffffffffffffffffffffffffffffffffffffffff1673ffffffffffffffffffffffffffffffffffffffff16815260200190815260200160002060006005815260200190815260200160002060006101000a81548160ff021916908315150217905550600160009054906101000a900473ffffffffffffffffffffffffffffffffffffffff1673ffffffffffffffffffffffffffffffffffffffff1663158a49883360016040518363ffffffff1660e01b8152600401613a6c929190614ce4565b600060405180830381600087803b158015613a8657600080fd5b505af1158015613a9a573d6000803e3d6000fd5b505050505b50565b60006020528060005260406000206000915054906101000a900460ff1681565b60306020528060005260406000206000915054906101000a900460ff1681565b60008073ffffffffffffffffffffffffffffffffffffffff16602e60003373ffffffffffffffffffffffffffffffffffffffff1673ffffffffffffffffffffffffffffffffffffffff16815260200190815260200160002060009054906101000a900473ffffffffffffffffffffffffffffffffffffffff1673ffffffffffffffffffffffffffffffffffffffff161415613bb2576040517f08c379a0000000000000000000000000000000000000000000000000000000008152600401613ba990614ec0565b60405180910390fd5b6000602e60003373ffffffffffffffffffffffffffffffffffffffff1673ffffffffffffffffffffffffffffffffffffffff16815260200190815260200160002060009054906101000a900473ffffffffffffffffffffffffffffffffffffffff1673ffffffffffffffffffffffffffffffffffffffff166370a08231306040518263ffffffff1660e01b8152600401613c4c9190614c77565b60206040518083038186803b158015613c6457600080fd5b505afa158015613c78573d6000803e3d6000fd5b505050506040513d601f19601f82011682018060405250613c9c9190810190614735565b9050602e60003373ffffffffffffffffffffffffffffffffffffffff1673ffffffffffffffffffffffffffffffffffffffff16815260200190815260200160002060009054906101000a900473ffffffffffffffffffffffffffffffffffffffff1673ffffffffffffffffffffffffffffffffffffffff1663a4821719655af3107a40006040518263ffffffff1660e01b81526004016020604051808303818588803b158015613d4b57600080fd5b505af1158015613d5f573d6000803e3d6000fd5b50505050506040513d601f19601f82011682018060405250613d849190810190614679565b506000602e60003373ffffffffffffffffffffffffffffffffffffffff1673ffffffffffffffffffffffffffffffffffffffff16815260200190815260200160002060009054906101000a900473ffffffffffffffffffffffffffffffffffffffff1673ffffffffffffffffffffffffffffffffffffffff166370a08231306040518263ffffffff1660e01b8152600401613e1f9190614c77565b60206040518083038186803b158015613e3757600080fd5b505afa158015613e4b573d6000803e3d6000fd5b505050506040513d601f19601f82011682018060405250613e6f9190810190614735565b9050808210613eb3576040517f08c379a0000000000000000000000000000000000000000000000000000000008152600401613eaa90614e40565b60405180910390fd5b8181039250602e60003373ffffffffffffffffffffffffffffffffffffffff1673ffffffffffffffffffffffffffffffffffffffff16815260200190815260200160002060009054906101000a900473ffffffffffffffffffffffffffffffffffffffff1673ffffffffffffffffffffffffffffffffffffffff1663a4821719660110d9316ec0006040518263ffffffff1660e01b81526004016020604051808303818588803b158015613f6657600080fd5b505af1158015613f7a573d6000803e3d6000fd5b50505050506040513d601f19601f82011682018060405250613f9f9190810190614679565b506000602e60003373ffffffffffffffffffffffffffffffffffffffff1673ffffffffffffffffffffffffffffffffffffffff16815260200190815260200160002060009054906101000a900473ffffffffffffffffffffffffffffffffffffffff1673ffffffffffffffffffffffffffffffffffffffff166370a08231306040518263ffffffff1660e01b815260040161403a9190614c77565b60206040518083038186803b15801561405257600080fd5b505afa158015614066573d6000803e3d6000fd5b505050506040513d601f19601f8201168201806040525061408a9190810190614735565b90508082106140ce576040517f08c379a00000000000000000000000000000000000000000000000000000000081526004016140c590614e40565b60405180910390fd5b60008282039050848111614117576040517f08c379a000000000000000000000000000000000000000000000000000000000815260040161410e90614ea0565b60405180910390fd5b5050505090565b6000816040516020016141319190614c60565b60405160208183030381529060405280519060200120836040516020016141589190614c60565b6040516020818303038152906040528051906020012014905092915050565b828054600181600116156101000203166002900490600052602060002090601f016020900481019282601f106141b057805485556141ed565b828001600101855582156141ed57600052602060002091601f016020900482015b828111156141ec5782548255916001019190600101906141d1565b5b5090506141fa9190614291565b5090565b826014810192821561422d579160200282015b8281111561422c578251825591602001919060010190614211565b5b50905061423a9190614291565b5090565b8260148101928215614280579160200282015b8281111561427f57825182908051906020019061426f9291906142b6565b5091602001919060010190614251565b5b50905061428d9190614336565b5090565b6142b391905b808211156142af576000816000905550600101614297565b5090565b90565b828054600181600116156101000203166002900490600052602060002090601f016020900481019282601f106142f757805160ff1916838001178555614325565b82800160010185558215614325579182015b82811115614324578251825591602001919060010190614309565b5b5090506143329190614291565b5090565b61435f91905b8082111561435b57600081816143529190614362565b5060010161433c565b5090565b90565b50805460018160011615610100020316600290046000825580601f1061438857506143a7565b601f0160209004906000526020600020908101906143a69190614291565b5b50565b6000813590506143b98161519f565b92915050565b600082601f8301126143d057600080fd5b60146143e36143de82614f68565b614f3b565b9150818360005b8381101561441a578135860161440088826144d7565b8452602084019350602083019250506001810190506143ea565b5050505092915050565b600082601f83011261443557600080fd5b601461444861444382614f8a565b614f3b565b9150818385602084028201111561445e57600080fd5b60005b8381101561448e5781614474888261457f565b845260208401935060208301925050600181019050614461565b5050505092915050565b6000815190506144a7816151b6565b92915050565b6000813590506144bc816151cd565b92915050565b6000813590506144d1816151e4565b92915050565b600082601f8301126144e857600080fd5b81356144fb6144f682614fac565b614f3b565b9150808252602083016020830185838301111561451757600080fd5b61452283828461514c565b50505092915050565b600082601f83011261453c57600080fd5b815161454f61454a82614fd8565b614f3b565b9150808252602083016020830185838301111561456b57600080fd5b61457683828461515b565b50505092915050565b60008135905061458e816151fb565b92915050565b6000815190506145a3816151fb565b92915050565b6000815190506145b881615212565b92915050565b6000602082840312156145d057600080fd5b60006145de848285016143aa565b91505092915050565b600080604083850312156145fa57600080fd5b6000614608858286016143aa565b92505060206146198582860161457f565b9150509250929050565b6000806102a0838503121561463757600080fd5b600061464585828601614424565b92505061028083013567ffffffffffffffff81111561466357600080fd5b61466f858286016143bf565b9150509250929050565b60006020828403121561468b57600080fd5b600061469984828501614498565b91505092915050565b6000602082840312156146b457600080fd5b60006146c2848285016144ad565b91505092915050565b6000602082840312156146dd57600080fd5b60006146eb848285016144c2565b91505092915050565b60006020828403121561470657600080fd5b600082015167ffffffffffffffff81111561472057600080fd5b61472c8482850161452b565b91505092915050565b60006020828403121561474757600080fd5b600061475584828501614594565b91505092915050565b60006020828403121561477057600080fd5b600061477e848285016145a9565b91505092915050565b614790816150bc565b82525050565b61479f8161505d565b82525050565b6147ae816150ce565b82525050565b6147bd816150f2565b82525050565b6147cc81615104565b82525050565b6147db81615116565b82525050565b60006147ec82615024565b6147f6818561502f565b935061480681856020860161515b565b61480f8161518e565b840191505092915050565b600061482582615024565b61482f8185615040565b935061483f81856020860161515b565b80840191505092915050565b600061485682615019565b614860818561502f565b935061487081856020860161515b565b6148798161518e565b840191505092915050565b6000815460018116600081146148a157600181146148c75761490b565b607f60028304166148b2818761502f565b955060ff19831686526020860193505061490b565b600282046148d5818761502f565b95506148e085615004565b60005b82811015614902578154818901526001820191506020810190506148e3565b80880195505050505b505092915050565b600061492060178361502f565b91507f417070726f7665206e6f7420696d706c656d656e7465640000000000000000006000830152602082019050919050565b600061496060108361502f565b91507f496e636f7272656374207469636b6572000000000000000000000000000000006000830152602082019050919050565b60006149a060238361502f565b91507f536f6c7574696f6e2073686f756c642073746172742077697468203020706f6960008301527f6e747300000000000000000000000000000000000000000000000000000000006020830152604082019050919050565b6000614a06601e8361502f565b91507f546f6b656e2062616c616e636520646964206e6f7420696e63726561736500006000830152602082019050919050565b6000614a46602c8361502f565b91507f42616c616e63654f66206e6f7420696d706c656d656e746564206f7220696e6360008301527f6f72726563746c792073657400000000000000000000000000000000000000006020830152604082019050919050565b6000614aac602f8361502f565b91507f536f6c7574696f6e2073686f756c6420656e642077697468206174206c65617360008301527f74207468616e203220706f696e747300000000000000000000000000000000006020830152604082019050919050565b6000614b1260228361502f565b91507f5365636f6e642062757920616d6f756e74206c6f776572207468616e2066697260008301527f73740000000000000000000000000000000000000000000000000000000000006020830152604082019050919050565b6000614b78601c8361502f565b91507f53747564656e74204552433230206e6f742072656769737465726564000000006000830152602082019050919050565b6000614bb860108361502f565b91507f496e636f727265637420737570706c79000000000000000000000000000000006000830152602082019050919050565b6000614bf8602c8361502f565b91507f416c6c6f77616e6365206e6f7420696d706c656d656e746564206f7220696e6360008301527f6f72726563746c792073657400000000000000000000000000000000000000006020830152604082019050919050565b614c5a816150a5565b82525050565b6000614c6c828461481a565b915081905092915050565b6000602082019050614c8c6000830184614787565b92915050565b6000604082019050614ca76000830185614787565b614cb46020830184614787565b9392505050565b6000604082019050614cd06000830185614787565b614cdd60208301846147b4565b9392505050565b6000604082019050614cf96000830185614787565b614d0660208301846147c3565b9392505050565b6000604082019050614d226000830185614787565b614d2f60208301846147d2565b9392505050565b6000602082019050614d4b6000830184614796565b92915050565b6000602082019050614d6660008301846147a5565b92915050565b60006020820190508181036000830152614d86818461484b565b905092915050565b60006020820190508181036000830152614da881846147e1565b905092915050565b60006040820190508181036000830152614dca8185614884565b9050614dd96020830184614c51565b9392505050565b60006020820190508181036000830152614df981614913565b9050919050565b60006020820190508181036000830152614e1981614953565b9050919050565b60006020820190508181036000830152614e3981614993565b9050919050565b60006020820190508181036000830152614e59816149f9565b9050919050565b60006020820190508181036000830152614e7981614a39565b9050919050565b60006020820190508181036000830152614e9981614a9f565b9050919050565b60006020820190508181036000830152614eb981614b05565b9050919050565b60006020820190508181036000830152614ed981614b6b565b9050919050565b60006020820190508181036000830152614ef981614bab565b9050919050565b60006020820190508181036000830152614f1981614beb565b9050919050565b6000602082019050614f356000830184614c51565b92915050565b6000604051905081810181811067ffffffffffffffff82111715614f5e57600080fd5b8060405250919050565b600067ffffffffffffffff821115614f7f57600080fd5b602082029050919050565b600067ffffffffffffffff821115614fa157600080fd5b602082029050919050565b600067ffffffffffffffff821115614fc357600080fd5b601f19601f8301169050602081019050919050565b600067ffffffffffffffff821115614fef57600080fd5b601f19601f8301169050602081019050919050565b60008190508160005260206000209050919050565b600081519050919050565b600081519050919050565b600082825260208201905092915050565b600081905092915050565b600061505682615085565b9050919050565b60008115159050919050565b6000819050919050565b600061507e8261504b565b9050919050565b600073ffffffffffffffffffffffffffffffffffffffff82169050919050565b6000819050919050565b600060ff82169050919050565b60006150c782615128565b9050919050565b60006150d9826150e0565b9050919050565b60006150eb82615085565b9050919050565b60006150fd826150a5565b9050919050565b600061510f826150a5565b9050919050565b6000615121826150a5565b9050919050565b60006151338261513a565b9050919050565b600061514582615085565b9050919050565b82818337600083830152505050565b60005b8381101561517957808201518184015260208101905061515e565b83811115615188576000848401525b50505050565b6000601f19601f8301169050919050565b6151a88161504b565b81146151b357600080fd5b50565b6151bf8161505d565b81146151ca57600080fd5b50565b6151d681615069565b81146151e157600080fd5b50565b6151ed81615073565b81146151f857600080fd5b50565b615204816150a5565b811461520f57600080fd5b50565b61521b816150af565b811461522657600080fd5b5056fea2646970667358221220aaef862ccaf2ef2c79cc7b0d95e9776e3c31e1f7158e7bca8e1fb09ebbe7b29f64736f6c63430006020033",
  "source": "// SPDX-License-Identifier: MIT\r\npragma solidity ^0.6.2;\r\npragma experimental ABIEncoderV2;\r\n\r\nimport \"./ERC20TD.sol\";\r\nimport \"./IExerciceSolution.sol\";\r\nimport \"./IAllInOneSolution.sol\";\r\n\r\ncontract Evaluator \r\n{\r\n\r\n\tmapping(address => bool) public teachers;\r\n\tERC20TD TDERC20;\r\n\r\n\tuint256[20] private randomSupplies;\r\n\tstring[20] private randomTickers;\r\n \tuint public nextValueStoreRank;\r\n\r\n \tmapping(address => string) public assignedTicker;\r\n \tmapping(address => uint256) public assignedSupply;\r\n \tmapping(address => mapping(uint256 => bool)) public exerciceProgression;\r\n \tmapping(address => IExerciceSolution) public studentErc20;\r\n \tmapping(address => uint256) public ex8Tier1AmountBought;\r\n \tmapping(address => bool) public hasBeenPaired;\r\n\r\n \tevent newRandomTickerAndSupply(string ticker, uint256 supply);\r\n \tevent constructedCorrectly(address erc20Address);\r\n\tconstructor(ERC20TD _TDERC20) \r\n\tpublic \r\n\t{\r\n\t\tTDERC20 = _TDERC20;\r\n\t\temit constructedCorrectly(address(TDERC20));\r\n\r\n\t}\r\n\r\n\tfallback () external payable \r\n\t{}\r\n\r\n\treceive () external payable \r\n\t{}\r\n\r\n\r\n\tfunction ex1_getTickerAndSupply()\r\n\tpublic\r\n\t{\r\n\t\tassignedSupply[msg.sender] = randomSupplies[nextValueStoreRank]*1000000000000000000;\r\n\t\t// assignedTicker[msg.sender] = bytes32ToString(randomTickers[nextValueStoreRank]);\r\n\t\tassignedTicker[msg.sender] = randomTickers[nextValueStoreRank];\r\n\r\n\t\tnextValueStoreRank += 1;\r\n\t\tif (nextValueStoreRank >= 20)\r\n\t\t{\r\n\t\t\tnextValueStoreRank = 0;\r\n\t\t}\r\n\r\n\t\t// Crediting points\r\n\t\tif (!exerciceProgression[msg.sender][1])\r\n\t\t{\r\n\t\t\texerciceProgression[msg.sender][1] = true;\r\n\t\t\tTDERC20.distributeTokens(msg.sender, 1);\r\n\t\t}\r\n\t}\r\n\r\n\tfunction ex2_testErc20TickerAndSupply()\r\n\tpublic\r\n\t{\r\n\t\t// Checking ticker and supply were received\r\n\t\trequire(exerciceProgression[msg.sender][1]);\r\n\r\n\t\t// Checking exercice was submitted\r\n\t\trequire(exerciceProgression[msg.sender][0]);\r\n\r\n\t\t// Checking ticker was set properly\r\n\t\trequire(_compareStrings(assignedTicker[msg.sender], studentErc20[msg.sender].symbol()), \"Incorrect ticker\");\r\n\t\t// Checking supply was set properly\r\n\t\trequire(assignedSupply[msg.sender] == studentErc20[msg.sender].totalSupply(), \"Incorrect supply\");\r\n\t\t// Checking some ERC20 functions were created\r\n\t\trequire(studentErc20[msg.sender].allowance(address(this), msg.sender) == 0, \"Allowance not implemented or incorrectly set\");\r\n\t\trequire(studentErc20[msg.sender].balanceOf(address(this)) == 0, \"BalanceOf not implemented or incorrectly set\");\r\n\t\trequire(studentErc20[msg.sender].approve(msg.sender, 10), \"Approve not implemented\");\r\n\r\n\t\t// Crediting points\r\n\t\tif (!exerciceProgression[msg.sender][2])\r\n\t\t{\r\n\t\t\texerciceProgression[msg.sender][2] = true;\r\n\t\t\t// Creating ERC20\r\n\t\t\tTDERC20.distributeTokens(msg.sender, 2);\r\n\t\t}\r\n\r\n\t}\r\n\r\n\tfunction ex3_testGetToken()\r\n\tpublic\r\n\t{\r\n\t\t// Checking ERC20 was created\r\n\t\trequire(address(studentErc20[msg.sender]) != address(0), \"Student ERC20 not registered\");\r\n\r\n\t\t// Retrieving initial balance\r\n\t\tuint256 initialBalance = studentErc20[msg.sender].balanceOf(address(this));\r\n\r\n\t\t// Call getToken\r\n\t\tstudentErc20[msg.sender].getToken();\r\n\r\n\t\t// Retrieving final balance\r\n\t\tuint256 finalBalance = studentErc20[msg.sender].balanceOf(address(this));\r\n\r\n\t\trequire(initialBalance < finalBalance, \"Token balance did not increase\");\r\n\r\n\t\tif (!exerciceProgression[msg.sender][3])\r\n\t\t{\r\n\t\t\texerciceProgression[msg.sender][3] = true;\r\n\t\t\t// Distribute points\r\n\t\t\tTDERC20.distributeTokens(msg.sender, 2);\r\n\r\n\t\t}\r\n\t}\r\n\r\n\tfunction ex4_testBuyToken()\r\n\tpublic\r\n\t{\r\n\r\n\t\t_testBuyToken();\r\n\r\n\t\tif (!exerciceProgression[msg.sender][4])\r\n\t\t{\r\n\t\t\texerciceProgression[msg.sender][4] = true;\r\n\t\t\t// Distribute points\r\n\t\t\tTDERC20.distributeTokens(msg.sender, 2);\r\n\t\t}\r\n\t}\r\n\r\n\tfunction ex5_testDenyListing()\r\n\tpublic\r\n\t{\r\n\t\t// Checking ERC20 was created\r\n\t\trequire(address(studentErc20[msg.sender]) != address(0), \"Student ERC20 not registered\");\r\n\r\n\t\trequire(!studentErc20[msg.sender].isCustomerWhiteListed(address(this)));\r\n\r\n\t\tbool wasBuyAccepted = true;\r\n\t\ttry studentErc20[msg.sender].getToken() returns (bool v) \r\n\t\t{\r\n\t\t\twasBuyAccepted = v;\r\n        } \r\n        catch \r\n        {\r\n            // This is executed in case revert() was used.\r\n            wasBuyAccepted = false;\r\n        }\r\n\r\n        require(!wasBuyAccepted);\r\n\r\n        if (!exerciceProgression[msg.sender][5])\r\n\t\t{\r\n\t\t\texerciceProgression[msg.sender][5] = true;\r\n\t\t\t// Distribute points\r\n\t\t\tTDERC20.distributeTokens(msg.sender, 1);\r\n\t\t}\r\n\t}\r\n\r\n\tfunction ex6_testAllowListing()\r\n\tpublic\r\n\t{\r\n\t\t// Checking ERC20 was created\r\n\t\trequire(address(studentErc20[msg.sender]) != address(0), \"Student ERC20 not registered\");\r\n\t\t// Checking ex5 was done\r\n\t\trequire(exerciceProgression[msg.sender][5]);\r\n\r\n\t\t// Check if the current contract is whitelisted\r\n\t\trequire(studentErc20[msg.sender].isCustomerWhiteListed(address(this)));\r\n\r\n\t\t// Trying to buy\r\n\t\tex3_testGetToken();\r\n\r\n        if (!exerciceProgression[msg.sender][6])\r\n\t\t{\r\n\t\t\texerciceProgression[msg.sender][6] = true;\r\n\t\t\t// Distribute points\r\n\t\t\tTDERC20.distributeTokens(msg.sender, 2);\r\n\t\t}\r\n\t}\r\n\r\n\tfunction ex7_testDenyListing()\r\n\tpublic\r\n\t{\r\n\t\t// Checking ERC20 was created\r\n\t\trequire(address(studentErc20[msg.sender]) != address(0), \"Student ERC20 not registered\");\r\n\r\n\t\trequire(!studentErc20[msg.sender].isCustomerWhiteListed(address(this)));\r\n\r\n\t\trequire(studentErc20[msg.sender].customerTierLevel(address(this)) == 0);\r\n\r\n\t\tbool wasBuyAccepted = true;\r\n\t\ttry studentErc20[msg.sender].buyToken.value(0.0001 ether)() returns (bool v) \r\n\t\t{\r\n\t\t\twasBuyAccepted = v;\r\n        } \r\n        catch \r\n        {\r\n            // This is executed in case revert() was used.\r\n            wasBuyAccepted = false;\r\n        }\r\n\r\n        require(!wasBuyAccepted);\r\n\r\n        if (!exerciceProgression[msg.sender][7])\r\n\t\t{\r\n\t\t\texerciceProgression[msg.sender][7] = true;\r\n\t\t\t// Distribute points\r\n\t\t\tTDERC20.distributeTokens(msg.sender, 1);\r\n\t\t}\r\n\t}\r\n\r\n\tfunction ex8_testTier1Listing()\r\n\tpublic\r\n\t{\r\n\t\t// Checking ERC20 was created\r\n\t\trequire(address(studentErc20[msg.sender]) != address(0), \"Student ERC20 not registered\");\r\n\t\t// Checking ex7 was done\r\n\t\trequire(exerciceProgression[msg.sender][7]);\r\n\r\n\t\t// Check if the current contract is whitelisted\r\n\t\trequire(studentErc20[msg.sender].isCustomerWhiteListed(address(this)));\r\n\r\n\t\t// Check if the current contract has the correct tier level\r\n\t\trequire(studentErc20[msg.sender].customerTierLevel(address(this)) == 1);\r\n\r\n\t\t// Trying to buy\r\n\t\tex8Tier1AmountBought[msg.sender] = _testBuyToken();\r\n\r\n        if (!exerciceProgression[msg.sender][8])\r\n\t\t{\r\n\t\t\texerciceProgression[msg.sender][8] = true;\r\n\t\t\t// Distribute points\r\n\t\t\tTDERC20.distributeTokens(msg.sender, 2);\r\n\t\t}\r\n\t}\r\n\r\n\tfunction ex9_testTier2Listing()\r\n\tpublic\r\n\t{\r\n\t\t// Checking ERC20 was created\r\n\t\trequire(address(studentErc20[msg.sender]) != address(0), \"Student ERC20 not registered\");\r\n\t\t// Checking ex7 was done\r\n\t\trequire(exerciceProgression[msg.sender][7]);\r\n\r\n\t\t// Check if the current contract is whitelisted\r\n\t\trequire(studentErc20[msg.sender].isCustomerWhiteListed(address(this)));\r\n\r\n\t\t// Check if the current contract has the correct tier level\r\n\t\trequire(studentErc20[msg.sender].customerTierLevel(address(this)) == 2);\r\n\r\n\t\t// Trying to buy\r\n\t\tuint256 tier2AmountBought = _testBuyToken();\r\n\r\n\t\t// Checking that bought amount is twice what was bought before, for the same price\r\n\t\trequire(tier2AmountBought == 2 * ex8Tier1AmountBought[msg.sender]);\r\n\r\n\r\n        if (!exerciceProgression[msg.sender][9])\r\n\t\t{\r\n\t\t\texerciceProgression[msg.sender][9] = true;\r\n\t\t\t// Distribute points\r\n\t\t\tTDERC20.distributeTokens(msg.sender, 2);\r\n\t\t}\r\n\t}\r\n\r\n\tfunction ex10_allInOne() \r\n\tpublic  \r\n\t{\r\n\t\t// Checking that solution has no token yet\r\n\t\tuint256 initialBalance = TDERC20.balanceOf(msg.sender);\r\n\t\trequire(initialBalance == 0, \"Solution should start with 0 points\");\r\n\r\n\t\t// Calling the solution so that it solves the workshop\r\n\t\tIAllInOneSolution callerSolution = IAllInOneSolution(msg.sender);\r\n\t\tcallerSolution.completeWorkshop();\r\n\r\n\t\t// Checking that at least 10 exercices where validated\r\n\t\tuint256 finalBalance = TDERC20.balanceOf(msg.sender);\r\n\t\tuint256 decimals = TDERC20.decimals();\r\n\t\trequire(finalBalance >= 10**decimals *18, \"Solution should end with at least than 2 points\");\r\n\r\n        if (!exerciceProgression[msg.sender][10])\r\n\t\t{\r\n\t\t\texerciceProgression[msg.sender][10] = true;\r\n\t\t\t// Distribute points\r\n\t\t\tTDERC20.distributeTokens(msg.sender, 2);\r\n\t\t}\r\n\r\n\t}\r\n\r\n\r\n\t/* Internal functions and modifiers */ \r\n\r\n\r\n\tmodifier onlyTeachers() \r\n\t{\r\n\r\n\t    require(TDERC20.teachers(msg.sender));\r\n\t    _;\r\n\t}\r\n\r\n\tfunction submitExercice(IExerciceSolution studentExercice)\r\n\tpublic\r\n\t{\r\n\t\t// Checking this contract was not used by another group before\r\n\t\trequire(!hasBeenPaired[address(studentExercice)]);\r\n\r\n\t\t// Assigning passed ERC20 as student ERC20\r\n\t\tstudentErc20[msg.sender] = studentExercice;\r\n\t\thasBeenPaired[address(studentExercice)] = true;\r\n\t\tif (!exerciceProgression[msg.sender][0])\r\n\t\t{\r\n\t\t\texerciceProgression[msg.sender][0] = true;\r\n\t\t\t// Setup points\r\n\t\t\tTDERC20.distributeTokens(msg.sender, 2);\r\n\t\t\t// Creating contract points\r\n\t\t\tTDERC20.distributeTokens(msg.sender, 2);\r\n\t\t\t// Deploying contract points\r\n\t\t\tTDERC20.distributeTokens(msg.sender, 1);\r\n\t\t}\r\n\t\t\t\r\n\t}\r\n\r\n\tfunction _compareStrings(string memory a, string memory b) \r\n\tinternal \r\n\tpure \r\n\treturns (bool) \r\n\t{\r\n    \treturn (keccak256(abi.encodePacked((a))) == keccak256(abi.encodePacked((b))));\r\n\t}\r\n\r\n\tfunction bytes32ToString(bytes32 _bytes32) \r\n\tpublic \r\n\tpure returns (string memory) \r\n\t{\r\n        uint8 i = 0;\r\n        while(i < 32 && _bytes32[i] != 0) {\r\n            i++;\r\n        }\r\n        bytes memory bytesArray = new bytes(i);\r\n        for (i = 0; i < 32 && _bytes32[i] != 0; i++) {\r\n            bytesArray[i] = _bytes32[i];\r\n        }\r\n        return string(bytesArray);\r\n    }\r\n\r\n\tfunction _testBuyToken()\r\n\tinternal\r\n\treturns(uint256 firstBuyAmount)\r\n\t{\r\n\t\t\t\t// Checking ERC20 was created\r\n\t\trequire(address(studentErc20[msg.sender]) != address(0), \"Student ERC20 not registered\");\r\n\r\n\t\t// Retrieving initial balance\r\n\t\tuint256 initialBalance = studentErc20[msg.sender].balanceOf(address(this));\r\n\r\n\t\t// Call buyToken\r\n\t\tstudentErc20[msg.sender].buyToken.value(0.0001 ether)();\r\n\r\n\t\t// Retrieving intermediate balance\r\n\t\tuint256 intermediateBalance = studentErc20[msg.sender].balanceOf(address(this));\r\n\r\n\t\trequire(initialBalance < intermediateBalance, \"Token balance did not increase\");\r\n\r\n\t\tfirstBuyAmount = intermediateBalance - initialBalance;\r\n\r\n\t\t// Call buyToken again\r\n\t\tstudentErc20[msg.sender].buyToken.value(0.0003 ether)();\r\n\r\n\t\t// Retrieving final balance\r\n\t\tuint256 finalBalance = studentErc20[msg.sender].balanceOf(address(this));\r\n\r\n\t\trequire(intermediateBalance < finalBalance, \"Token balance did not increase\");\r\n\r\n\t\tuint256 secondBuyAmount = finalBalance - intermediateBalance;\r\n\r\n\t\t// Check that second buy amount was a different amount that first buy amount\r\n\r\n\t\trequire(secondBuyAmount > firstBuyAmount, \"Second buy amount lower than first\");\r\n\t}\r\n\r\n\tfunction readTicker(address studentAddres)\r\n\tpublic\r\n\tview\r\n\treturns(string memory)\r\n\t{\r\n\t\treturn assignedTicker[studentAddres];\r\n\t}\r\n\r\n\tfunction readSupply(address studentAddres)\r\n\tpublic\r\n\tview\r\n\treturns(uint256)\r\n\t{\r\n\t\treturn assignedSupply[studentAddres];\r\n\t}\r\n\r\n\tfunction setRandomTickersAndSupply(uint256[20] memory _randomSupplies, string[20] memory _randomTickers) \r\n\tpublic \r\n\tonlyTeachers\r\n\t{\r\n\t\trandomSupplies = _randomSupplies;\r\n\t\trandomTickers = _randomTickers;\r\n\t\tnextValueStoreRank = 0;\r\n\t\tfor (uint i = 0; i < 20; i++)\r\n\t\t{\r\n\t\t\temit newRandomTickerAndSupply(randomTickers[i], randomSupplies[i]);\r\n\t\t}\r\n\t}\r\n\r\n\r\n\r\n\r\n}\r\n",
  "sourcePath": "C:\\Users\\sacha\\OneDrive\\Documents\\erc20-101\\contracts\\Evaluator.sol",
  "compiler": {
    "name": "solc",
    "version": "0.6.2+commit.bacdbe57.Emscripten.clang"
  },
  "schemaVersion": "3.4.11",
  "updatedAt": "2022-11-29T23:22:48.656Z",
  "networkType": "ethereum",
  "devdoc": {
    "methods": {}
  },
  "userdoc": {
    "methods": {}
  }
}